{
    "contractName": "SimpleVoting",
    "abi": [
        {
            "inputs": [
                {
                    "internalType": "address",
                    "name": "_governanceToken",
                    "type": "address"
                },
                {
                    "internalType": "address",
                    "name": "_admin",
                    "type": "address"
                }
            ],
            "stateMutability": "nonpayable",
            "type": "constructor"
        },
        {
            "anonymous": false,
            "inputs": [
                {
                    "indexed": false,
                    "internalType": "string",
                    "name": "parameter",
                    "type": "string"
                },
                {
                    "indexed": false,
                    "internalType": "uint256",
                    "name": "oldValue",
                    "type": "uint256"
                },
                {
                    "indexed": false,
                    "internalType": "uint256",
                    "name": "newValue",
                    "type": "uint256"
                }
            ],
            "name": "ParameterUpdated",
            "type": "event"
        },
        {
            "anonymous": false,
            "inputs": [
                {
                    "indexed": false,
                    "internalType": "address",
                    "name": "account",
                    "type": "address"
                }
            ],
            "name": "Paused",
            "type": "event"
        },
        {
            "anonymous": false,
            "inputs": [
                {
                    "indexed": true,
                    "internalType": "bytes32",
                    "name": "role",
                    "type": "bytes32"
                },
                {
                    "indexed": true,
                    "internalType": "bytes32",
                    "name": "previousAdminRole",
                    "type": "bytes32"
                },
                {
                    "indexed": true,
                    "internalType": "bytes32",
                    "name": "newAdminRole",
                    "type": "bytes32"
                }
            ],
            "name": "RoleAdminChanged",
            "type": "event"
        },
        {
            "anonymous": false,
            "inputs": [
                {
                    "indexed": true,
                    "internalType": "bytes32",
                    "name": "role",
                    "type": "bytes32"
                },
                {
                    "indexed": true,
                    "internalType": "address",
                    "name": "account",
                    "type": "address"
                },
                {
                    "indexed": true,
                    "internalType": "address",
                    "name": "sender",
                    "type": "address"
                }
            ],
            "name": "RoleGranted",
            "type": "event"
        },
        {
            "anonymous": false,
            "inputs": [
                {
                    "indexed": true,
                    "internalType": "bytes32",
                    "name": "role",
                    "type": "bytes32"
                },
                {
                    "indexed": true,
                    "internalType": "address",
                    "name": "account",
                    "type": "address"
                },
                {
                    "indexed": true,
                    "internalType": "address",
                    "name": "sender",
                    "type": "address"
                }
            ],
            "name": "RoleRevoked",
            "type": "event"
        },
        {
            "anonymous": false,
            "inputs": [
                {
                    "indexed": true,
                    "internalType": "uint256",
                    "name": "sessionId",
                    "type": "uint256"
                },
                {
                    "indexed": true,
                    "internalType": "address",
                    "name": "creator",
                    "type": "address"
                },
                {
                    "indexed": false,
                    "internalType": "uint256",
                    "name": "amount",
                    "type": "uint256"
                }
            ],
            "name": "SessionDepositRefunded",
            "type": "event"
        },
        {
            "anonymous": false,
            "inputs": [
                {
                    "indexed": true,
                    "internalType": "uint256",
                    "name": "sessionId",
                    "type": "uint256"
                },
                {
                    "indexed": true,
                    "internalType": "address",
                    "name": "voter",
                    "type": "address"
                },
                {
                    "indexed": false,
                    "internalType": "bool",
                    "name": "choice",
                    "type": "bool"
                },
                {
                    "indexed": false,
                    "internalType": "uint256",
                    "name": "weight",
                    "type": "uint256"
                },
                {
                    "indexed": false,
                    "internalType": "uint256",
                    "name": "timestamp",
                    "type": "uint256"
                }
            ],
            "name": "SimpleVoteCast",
            "type": "event"
        },
        {
            "anonymous": false,
            "inputs": [
                {
                    "indexed": false,
                    "internalType": "address",
                    "name": "account",
                    "type": "address"
                }
            ],
            "name": "Unpaused",
            "type": "event"
        },
        {
            "anonymous": false,
            "inputs": [
                {
                    "indexed": true,
                    "internalType": "uint256",
                    "name": "sessionId",
                    "type": "uint256"
                },
                {
                    "indexed": true,
                    "internalType": "address",
                    "name": "creator",
                    "type": "address"
                },
                {
                    "indexed": false,
                    "internalType": "string",
                    "name": "question",
                    "type": "string"
                },
                {
                    "indexed": false,
                    "internalType": "string",
                    "name": "ipfsHash",
                    "type": "string"
                },
                {
                    "indexed": false,
                    "internalType": "uint256",
                    "name": "startTime",
                    "type": "uint256"
                },
                {
                    "indexed": false,
                    "internalType": "uint256",
                    "name": "endTime",
                    "type": "uint256"
                },
                {
                    "indexed": false,
                    "internalType": "uint256",
                    "name": "snapshotBlock",
                    "type": "uint256"
                },
                {
                    "indexed": false,
                    "internalType": "uint256",
                    "name": "minimumQuorum",
                    "type": "uint256"
                }
            ],
            "name": "VoteSessionCreated",
            "type": "event"
        },
        {
            "anonymous": false,
            "inputs": [
                {
                    "indexed": true,
                    "internalType": "uint256",
                    "name": "sessionId",
                    "type": "uint256"
                },
                {
                    "indexed": false,
                    "internalType": "uint256",
                    "name": "yesVotes",
                    "type": "uint256"
                },
                {
                    "indexed": false,
                    "internalType": "uint256",
                    "name": "noVotes",
                    "type": "uint256"
                },
                {
                    "indexed": false,
                    "internalType": "uint256",
                    "name": "totalParticipants",
                    "type": "uint256"
                },
                {
                    "indexed": false,
                    "internalType": "bool",
                    "name": "result",
                    "type": "bool"
                },
                {
                    "indexed": false,
                    "internalType": "bool",
                    "name": "quorumMet",
                    "type": "bool"
                }
            ],
            "name": "VoteSessionEnded",
            "type": "event"
        },
        {
            "inputs": [],
            "name": "ADMIN_ROLE",
            "outputs": [
                {
                    "internalType": "bytes32",
                    "name": "",
                    "type": "bytes32"
                }
            ],
            "stateMutability": "view",
            "type": "function"
        },
        {
            "inputs": [],
            "name": "DEFAULT_ADMIN_ROLE",
            "outputs": [
                {
                    "internalType": "bytes32",
                    "name": "",
                    "type": "bytes32"
                }
            ],
            "stateMutability": "view",
            "type": "function"
        },
        {
            "inputs": [],
            "name": "MAX_VOTING_DURATION",
            "outputs": [
                {
                    "internalType": "uint256",
                    "name": "",
                    "type": "uint256"
                }
            ],
            "stateMutability": "view",
            "type": "function"
        },
        {
            "inputs": [],
            "name": "MIN_VOTING_DURATION",
            "outputs": [
                {
                    "internalType": "uint256",
                    "name": "",
                    "type": "uint256"
                }
            ],
            "stateMutability": "view",
            "type": "function"
        },
        {
            "inputs": [],
            "name": "MODERATOR_ROLE",
            "outputs": [
                {
                    "internalType": "bytes32",
                    "name": "",
                    "type": "bytes32"
                }
            ],
            "stateMutability": "view",
            "type": "function"
        },
        {
            "inputs": [
                {
                    "internalType": "uint256[]",
                    "name": "sessionIds",
                    "type": "uint256[]"
                }
            ],
            "name": "batchGetSessions",
            "outputs": [
                {
                    "internalType": "uint256[]",
                    "name": "yesVotes",
                    "type": "uint256[]"
                },
                {
                    "internalType": "uint256[]",
                    "name": "noVotes",
                    "type": "uint256[]"
                },
                {
                    "internalType": "uint256[]",
                    "name": "participants",
                    "type": "uint256[]"
                },
                {
                    "internalType": "bool[]",
                    "name": "isActive",
                    "type": "bool[]"
                },
                {
                    "internalType": "bool[]",
                    "name": "quorumMet",
                    "type": "bool[]"
                }
            ],
            "stateMutability": "view",
            "type": "function"
        },
        {
            "inputs": [
                {
                    "internalType": "address",
                    "name": "account",
                    "type": "address"
                }
            ],
            "name": "canCreateSession",
            "outputs": [
                {
                    "internalType": "bool",
                    "name": "",
                    "type": "bool"
                }
            ],
            "stateMutability": "view",
            "type": "function"
        },
        {
            "inputs": [
                {
                    "internalType": "uint256",
                    "name": "sessionId",
                    "type": "uint256"
                }
            ],
            "name": "cancelVoteSession",
            "outputs": [],
            "stateMutability": "nonpayable",
            "type": "function"
        },
        {
            "inputs": [
                {
                    "internalType": "string",
                    "name": "question",
                    "type": "string"
                },
                {
                    "internalType": "uint256",
                    "name": "duration",
                    "type": "uint256"
                },
                {
                    "internalType": "string",
                    "name": "ipfsHash",
                    "type": "string"
                },
                {
                    "internalType": "uint256",
                    "name": "customQuorum",
                    "type": "uint256"
                }
            ],
            "name": "createVoteSession",
            "outputs": [
                {
                    "internalType": "uint256",
                    "name": "sessionId",
                    "type": "uint256"
                }
            ],
            "stateMutability": "nonpayable",
            "type": "function"
        },
        {
            "inputs": [],
            "name": "defaultMinimumQuorum",
            "outputs": [
                {
                    "internalType": "uint256",
                    "name": "",
                    "type": "uint256"
                }
            ],
            "stateMutability": "view",
            "type": "function"
        },
        {
            "inputs": [
                {
                    "internalType": "uint256",
                    "name": "sessionId",
                    "type": "uint256"
                }
            ],
            "name": "emergencyStopSession",
            "outputs": [],
            "stateMutability": "nonpayable",
            "type": "function"
        },
        {
            "inputs": [
                {
                    "internalType": "uint256",
                    "name": "sessionId",
                    "type": "uint256"
                }
            ],
            "name": "endVoteSession",
            "outputs": [],
            "stateMutability": "nonpayable",
            "type": "function"
        },
        {
            "inputs": [
                {
                    "internalType": "bytes32",
                    "name": "role",
                    "type": "bytes32"
                }
            ],
            "name": "getRoleAdmin",
            "outputs": [
                {
                    "internalType": "bytes32",
                    "name": "",
                    "type": "bytes32"
                }
            ],
            "stateMutability": "view",
            "type": "function"
        },
        {
            "inputs": [],
            "name": "getSessionCount",
            "outputs": [
                {
                    "internalType": "uint256",
                    "name": "",
                    "type": "uint256"
                }
            ],
            "stateMutability": "view",
            "type": "function"
        },
        {
            "inputs": [
                {
                    "internalType": "uint256",
                    "name": "sessionId",
                    "type": "uint256"
                }
            ],
            "name": "getSessionResults",
            "outputs": [
                {
                    "internalType": "uint256",
                    "name": "yesVotes",
                    "type": "uint256"
                },
                {
                    "internalType": "uint256",
                    "name": "noVotes",
                    "type": "uint256"
                },
                {
                    "internalType": "uint256",
                    "name": "totalParticipants",
                    "type": "uint256"
                },
                {
                    "internalType": "bool",
                    "name": "isValid",
                    "type": "bool"
                },
                {
                    "internalType": "bool",
                    "name": "yesWinning",
                    "type": "bool"
                },
                {
                    "internalType": "bool",
                    "name": "quorumMet",
                    "type": "bool"
                }
            ],
            "stateMutability": "view",
            "type": "function"
        },
        {
            "inputs": [
                {
                    "internalType": "uint256",
                    "name": "sessionId",
                    "type": "uint256"
                }
            ],
            "name": "getVoteSession",
            "outputs": [
                {
                    "internalType": "uint256",
                    "name": "id",
                    "type": "uint256"
                },
                {
                    "internalType": "address",
                    "name": "creator",
                    "type": "address"
                },
                {
                    "internalType": "string",
                    "name": "question",
                    "type": "string"
                },
                {
                    "internalType": "string",
                    "name": "ipfsHash",
                    "type": "string"
                },
                {
                    "internalType": "uint256",
                    "name": "startTime",
                    "type": "uint256"
                },
                {
                    "internalType": "uint256",
                    "name": "endTime",
                    "type": "uint256"
                },
                {
                    "internalType": "uint256",
                    "name": "snapshotBlock",
                    "type": "uint256"
                },
                {
                    "internalType": "bool",
                    "name": "isActive",
                    "type": "bool"
                }
            ],
            "stateMutability": "view",
            "type": "function"
        },
        {
            "inputs": [
                {
                    "internalType": "uint256",
                    "name": "sessionId",
                    "type": "uint256"
                }
            ],
            "name": "getVoteSessionResults",
            "outputs": [
                {
                    "internalType": "uint256",
                    "name": "yesVotes",
                    "type": "uint256"
                },
                {
                    "internalType": "uint256",
                    "name": "noVotes",
                    "type": "uint256"
                },
                {
                    "internalType": "uint256",
                    "name": "totalParticipants",
                    "type": "uint256"
                },
                {
                    "internalType": "uint256",
                    "name": "minimumQuorum",
                    "type": "uint256"
                }
            ],
            "stateMutability": "view",
            "type": "function"
        },
        {
            "inputs": [],
            "name": "governanceToken",
            "outputs": [
                {
                    "internalType": "contract GovernanceToken",
                    "name": "",
                    "type": "address"
                }
            ],
            "stateMutability": "view",
            "type": "function"
        },
        {
            "inputs": [
                {
                    "internalType": "bytes32",
                    "name": "role",
                    "type": "bytes32"
                },
                {
                    "internalType": "address",
                    "name": "account",
                    "type": "address"
                }
            ],
            "name": "grantRole",
            "outputs": [],
            "stateMutability": "nonpayable",
            "type": "function"
        },
        {
            "inputs": [
                {
                    "internalType": "bytes32",
                    "name": "role",
                    "type": "bytes32"
                },
                {
                    "internalType": "address",
                    "name": "account",
                    "type": "address"
                }
            ],
            "name": "hasRole",
            "outputs": [
                {
                    "internalType": "bool",
                    "name": "",
                    "type": "bool"
                }
            ],
            "stateMutability": "view",
            "type": "function"
        },
        {
            "inputs": [
                {
                    "internalType": "uint256",
                    "name": "",
                    "type": "uint256"
                },
                {
                    "internalType": "address",
                    "name": "",
                    "type": "address"
                }
            ],
            "name": "hasVotedInSession",
            "outputs": [
                {
                    "internalType": "bool",
                    "name": "",
                    "type": "bool"
                }
            ],
            "stateMutability": "view",
            "type": "function"
        },
        {
            "inputs": [],
            "name": "pause",
            "outputs": [],
            "stateMutability": "nonpayable",
            "type": "function"
        },
        {
            "inputs": [],
            "name": "paused",
            "outputs": [
                {
                    "internalType": "bool",
                    "name": "",
                    "type": "bool"
                }
            ],
            "stateMutability": "view",
            "type": "function"
        },
        {
            "inputs": [
                {
                    "internalType": "bytes32",
                    "name": "role",
                    "type": "bytes32"
                },
                {
                    "internalType": "address",
                    "name": "account",
                    "type": "address"
                }
            ],
            "name": "renounceRole",
            "outputs": [],
            "stateMutability": "nonpayable",
            "type": "function"
        },
        {
            "inputs": [
                {
                    "internalType": "bytes32",
                    "name": "role",
                    "type": "bytes32"
                },
                {
                    "internalType": "address",
                    "name": "account",
                    "type": "address"
                }
            ],
            "name": "revokeRole",
            "outputs": [],
            "stateMutability": "nonpayable",
            "type": "function"
        },
        {
            "inputs": [],
            "name": "sessionCreationThreshold",
            "outputs": [
                {
                    "internalType": "uint256",
                    "name": "",
                    "type": "uint256"
                }
            ],
            "stateMutability": "view",
            "type": "function"
        },
        {
            "inputs": [],
            "name": "sessionDeposit",
            "outputs": [
                {
                    "internalType": "uint256",
                    "name": "",
                    "type": "uint256"
                }
            ],
            "stateMutability": "view",
            "type": "function"
        },
        {
            "inputs": [
                {
                    "internalType": "uint256",
                    "name": "",
                    "type": "uint256"
                },
                {
                    "internalType": "address",
                    "name": "",
                    "type": "address"
                }
            ],
            "name": "sessionVotes",
            "outputs": [
                {
                    "internalType": "address",
                    "name": "voter",
                    "type": "address"
                },
                {
                    "internalType": "bool",
                    "name": "choice",
                    "type": "bool"
                },
                {
                    "internalType": "uint256",
                    "name": "timestamp",
                    "type": "uint256"
                },
                {
                    "internalType": "uint256",
                    "name": "weight",
                    "type": "uint256"
                }
            ],
            "stateMutability": "view",
            "type": "function"
        },
        {
            "inputs": [
                {
                    "internalType": "bytes4",
                    "name": "interfaceId",
                    "type": "bytes4"
                }
            ],
            "name": "supportsInterface",
            "outputs": [
                {
                    "internalType": "bool",
                    "name": "",
                    "type": "bool"
                }
            ],
            "stateMutability": "view",
            "type": "function"
        },
        {
            "inputs": [],
            "name": "unpause",
            "outputs": [],
            "stateMutability": "nonpayable",
            "type": "function"
        },
        {
            "inputs": [
                {
                    "internalType": "uint256",
                    "name": "newQuorum",
                    "type": "uint256"
                }
            ],
            "name": "updateDefaultMinimumQuorum",
            "outputs": [],
            "stateMutability": "nonpayable",
            "type": "function"
        },
        {
            "inputs": [
                {
                    "internalType": "uint256",
                    "name": "newThreshold",
                    "type": "uint256"
                }
            ],
            "name": "updateSessionCreationThreshold",
            "outputs": [],
            "stateMutability": "nonpayable",
            "type": "function"
        },
        {
            "inputs": [
                {
                    "internalType": "uint256",
                    "name": "newDeposit",
                    "type": "uint256"
                }
            ],
            "name": "updateSessionDeposit",
            "outputs": [],
            "stateMutability": "nonpayable",
            "type": "function"
        },
        {
            "inputs": [
                {
                    "internalType": "uint256",
                    "name": "sessionId",
                    "type": "uint256"
                },
                {
                    "internalType": "bool",
                    "name": "choice",
                    "type": "bool"
                }
            ],
            "name": "voteInSession",
            "outputs": [],
            "stateMutability": "nonpayable",
            "type": "function"
        },
        {
            "inputs": [
                {
                    "internalType": "uint256",
                    "name": "",
                    "type": "uint256"
                }
            ],
            "name": "voteSessions",
            "outputs": [
                {
                    "internalType": "uint256",
                    "name": "id",
                    "type": "uint256"
                },
                {
                    "internalType": "address",
                    "name": "creator",
                    "type": "address"
                },
                {
                    "internalType": "string",
                    "name": "question",
                    "type": "string"
                },
                {
                    "internalType": "string",
                    "name": "ipfsHash",
                    "type": "string"
                },
                {
                    "internalType": "uint256",
                    "name": "startTime",
                    "type": "uint256"
                },
                {
                    "internalType": "uint256",
                    "name": "endTime",
                    "type": "uint256"
                },
                {
                    "internalType": "uint256",
                    "name": "snapshotBlock",
                    "type": "uint256"
                },
                {
                    "internalType": "bool",
                    "name": "isActive",
                    "type": "bool"
                },
                {
                    "internalType": "uint256",
                    "name": "yesVotes",
                    "type": "uint256"
                },
                {
                    "internalType": "uint256",
                    "name": "noVotes",
                    "type": "uint256"
                },
                {
                    "internalType": "uint256",
                    "name": "totalParticipants",
                    "type": "uint256"
                },
                {
                    "internalType": "uint256",
                    "name": "deposit",
                    "type": "uint256"
                },
                {
                    "internalType": "bool",
                    "name": "depositRefunded",
                    "type": "bool"
                },
                {
                    "internalType": "uint256",
                    "name": "minimumQuorum",
                    "type": "uint256"
                }
            ],
            "stateMutability": "view",
            "type": "function"
        },
        {
            "inputs": [
                {
                    "internalType": "address",
                    "name": "to",
                    "type": "address"
                },
                {
                    "internalType": "uint256",
                    "name": "amount",
                    "type": "uint256"
                }
            ],
            "name": "withdrawUnclaimedDeposits",
            "outputs": [],
            "stateMutability": "nonpayable",
            "type": "function"
        }
    ],
    "bytecode": "60a03461027857601f612de938819003918201601f19168301916001600160401b0383118484101761027c57808492604094855283398101031261027857610052602061004b83610290565b9201610290565b60015f819055805460ff1916905568056bc75e2d63100000600455683635c9adc5dea00000600855681b1ae4d6e2ef5000006009556001600160a01b03909116908115610227576001600160a01b03169081156101e2576080525f8181525f516020612da95f395f51905f52602052604090205460ff16156101a4575b5f8181525f516020612dc95f395f51905f52602052604090205460ff1615610144575b600160035401600355604051612ae490816102a582396080518181816101ba015281816103f1015281816106c701528181610f09015281816110ed015281816115ab01528181611e1301526122130152f35b5f8181525f516020612dc95f395f51905f5260205260408120805460ff191660011790553391907fa49807205ce4d355092ef5a8a18f56e8913cf4a201fbe287825b095693c21775905f516020612d895f395f51905f529080a45f6100f2565b5f8181525f516020612da95f395f51905f5260205260408120805460ff19166001179055339082905f516020612d895f395f51905f528180a46100cf565b60405162461bcd60e51b815260206004820152601860248201527f53696d706c65566f74696e673a207a65726f2061646d696e00000000000000006044820152606490fd5b60405162461bcd60e51b815260206004820152602360248201527f53696d706c65566f74696e673a207a65726f20676f7665726e616e636520746f60448201526235b2b760e91b6064820152608490fd5b5f80fd5b634e487b7160e01b5f52604160045260245ffd5b51906001600160a01b03821682036102785756fe60806040526004361015610011575f80fd5b5f3560e01c80630172ac9d146120f757806301ffc9a7146120a157806306caebb614611fa257806309dd012814611cdb578063119f9b251461150857806319f41d5f1461148e5780631b5232b0146114215780632039678014611404578063248a9ca3146113d15780632f2ff15d1461131857806336568abe146112865780633ed95988146112695780633f4ba83a146111d657806344aeeb0c1461108b5780635c975abb146110695780636e6734bf146110405780637187bece14610dda57806375b238fc14610da0578063778021e414610cd157806378f5238a14610b16578063797669c914610adc5780637d1123ea14610a025780637fce5d77146105ec5780638456cb591461059457806391d148541461054b57806396a5b5851461052e578063a217fddf14610514578063aedc70331461046e578063b130f547146103ae578063c349c51b1461033d578063d2bd5bb7146102f4578063d547741f146102af578063e915a06514610226578063eaf1061c1461020a578063eefe85e4146101ed5763f96dae0a146101a5575f80fd5b346101e9575f3660031901126101e9576040517f00000000000000000000000000000000000000000000000000000000000000006001600160a01b03168152602090f35b5f80fd5b346101e9575f3660031901126101e957602060405162093a808152f35b346101e9575f3660031901126101e95760206040516102588152f35b346101e95760203660031901126101e9577f185daf617c465de5e0042f7aae1503b1a216ea8927cacf296e58b516e82afea860a06004356102656127b9565b60095490806009556040519160608352601860608401527f73657373696f6e4372656174696f6e5468726573686f6c640000000000000000608084015260208301526040820152a1005b346101e95760403660031901126101e9576102f26004356102ce612489565b906102ed6102e8825f526002602052600160405f20015490565b612830565b612874565b005b346101e95760403660031901126101e95761030d612489565b6004355f52600760205260405f209060018060a01b03165f52602052602060ff60405f2054166040519015158152f35b346101e95760403660031901126101e957610356612489565b6004355f52600660205260405f209060018060a01b03165f52602052608060405f20805490600260018201549101549060ff6040519360018060a01b038116855260a01c161515602084015260408301526060820152f35b346101e95760203660031901126101e9576103c761249f565b6040516309ab24eb60e41b81526001600160a01b03918216600482015290602090829060249082907f0000000000000000000000000000000000000000000000000000000000000000165afa8015610463575f90610430575b6020906009541115604051908152f35b506020813d60201161045b575b8161044a60209383612375565b810103126101e95760209051610420565b3d915061043d565b6040513d5f823e3d90fd5b346101e95760203660031901126101e95760043580151580610508575b6104949061251d565b5f52600560205260c060405f2060088101549060098101546104b68184612630565b92600a8301549360ff60078501541693846104f9575b600d01541115926040519482865283602087015260408601521515606085015211608083015260a0820152f35b600581015442111594506104cc565b5060035481111561048b565b346101e9575f3660031901126101e95760206040515f8152f35b346101e9575f3660031901126101e9576020600454604051908152f35b346101e95760403660031901126101e957610564612489565b6004355f52600260205260405f209060018060a01b03165f52602052602060ff60405f2054166040519015158152f35b346101e9575f3660031901126101e9576105ac6127b9565b6105b4612775565b600160ff19815416176001557f62e78cea01bee320cd4e420270b5ea74000d11b0c9f74754ebdbfc544b05a2586020604051338152a1005b346101e95760403660031901126101e95760043560243590811515918281036101e957610617612721565b811515806109f6575b6106299061251d565b815f52600560205260405f2060ff600782015416156109b2576004810154421061096e57600501544211610929575f82815260076020908152604080832033845290915290205460ff166108e4576106c390610683612775565b5f8381526005602090815260409182902060068101549251630748d63560e31b815233600482015260248101939093529193919291849081906044820190565b03817f00000000000000000000000000000000000000000000000000000000000000006001600160a01b03165afa928315610463575f936108b0575b508215610859576040516080810181811067ffffffffffffffff82111761084557604090815233808352602080840189815242858501908152606086018981525f8b81526006855286812086825285528681209751885494516001600160a81b03199095166001600160a01b03919091161793151560a01b60ff60a01b1693909317875590516001878101919091559051600296909601959095558881526007825283812092815291905220805460ff19169091179055600a820180545f1981146108315760010190551561081c576008016107dc828254612630565b90555b60405192835260208301524260408301527fa471f1ced343c85c36e809f2ba49e7874b16854dd0438ac7f805773bf70ebeeb60603393a360015f55005b60090161082a828254612630565b90556107df565b634e487b7160e01b5f52601160045260245ffd5b634e487b7160e01b5f52604160045260245ffd5b60405162461bcd60e51b815260206004820152602960248201527f53696d706c65566f74696e673a206e6f20766f74696e6720706f776572206174604482015268081cdb985c1cda1bdd60ba1b6064820152608490fd5b9092506020813d6020116108dc575b816108cc60209383612375565b810103126101e9575191856106ff565b3d91506108bf565b60405162461bcd60e51b815260206004820152601b60248201527f53696d706c65566f74696e673a20616c726561647920766f74656400000000006044820152606490fd5b60405162461bcd60e51b815260206004820152601a60248201527f53696d706c65566f74696e673a20766f74696e6720656e6465640000000000006044820152606490fd5b606460405162461bcd60e51b815260206004820152602060248201527f53696d706c65566f74696e673a20766f74696e67206e6f7420737461727465646044820152fd5b606460405162461bcd60e51b815260206004820152602060248201527f53696d706c65566f74696e673a2073657373696f6e206e6f74206163746976656044820152fd5b50600354821115610620565b346101e95760203660031901126101e957600435610a1e6127b9565b8015610a895760a07f185daf617c465de5e0042f7aae1503b1a216ea8927cacf296e58b516e82afea89160085490806008556040519160608352601460608401527364656661756c744d696e696d756d51756f72756d60601b608084015260208301526040820152a1005b60405162461bcd60e51b815260206004820152602560248201527f53696d706c65566f74696e673a2071756f72756d206d75737420626520706f73604482015264697469766560d81b6064820152608490fd5b346101e9575f3660031901126101e95760206040517f71f3d55856e4058ed06ee057d79ada615f65cdf5f9ee88181b914225088f834f8152f35b346101e95760203660031901126101e95760043567ffffffffffffffff81116101e957366023820112156101e957806004013567ffffffffffffffff81116101e9573660248260051b840101116101e957610b70816126c7565b91610b7a826126c7565b610b83836126c7565b93610b8d846126c7565b610b96856126c7565b935f5b86811015610c6d5760019060248160051b8401013580151580610c61575b610bc3575b5001610b99565b5f52600560205260405f20600d610c2f600883015480610be3868b6126f9565b5260098401549081610bf5878d6126f9565b528d610c0687600a880154926126f9565b5260ff60078601541680610c53575b80610c45575b610c25878b6126f9565b9015159052612630565b9101541115610c3e82896126f9565b5289610bbc565b506005850154421115610c1b565b506004850154421015610c15565b50600354811115610bb7565b610c9584610ccd88610cbf87610cb18e610ca38d604051998a9960a08b5260a08b01906124b5565b9089820360208b01526124b5565b9087820360408901526124b5565b9085820360608701526124e8565b9083820360808501526124e8565b0390f35b346101e95760203660031901126101e95760043580151580610d94575b610cf79061251d565b5f52600560205260405f20805460018060a01b03600183015416916004810154906005810154600682015490610d7960ff60078501541693610d6b610d4a6003610d4360028501612397565b9301612397565b91604051998a998a5260208a015261010060408a0152610100890190612437565b908782036060890152612437565b93608086015260a085015260c0840152151560e08301520390f35b50600354811115610cee565b346101e9575f3660031901126101e95760206040517fa49807205ce4d355092ef5a8a18f56e8913cf4a201fbe287825b095693c217758152f35b346101e95760203660031901126101e957600435610df6612721565b80151580611034575b610e089061251d565b610e10612775565b805f52600560205260405f20600781018054610e2e60ff8216612568565b6005830154421115610fe55760ff1916905560088101908154906009810191825491610e5a8383612630565b600d820154111592839283610fdb575b50508280610fcc575b610eba575b600a5f516020612a8f5f395f51905f5295549454910154906040519485526020850152604084015215156060830152608082015260a08180030190a260015f55005b600c8101805460ff1916600190811790915581018054600b8301805460405163a9059cbb60e01b81526001600160a01b039390931660048401526024830152909690602088806044810103815f7f00000000000000000000000000000000000000000000000000000000000000006001600160a01b03165af1928315610463577fd15adc763ac0a264aee2528f5778f3ffef2c59bb6858e1e0591a784f6d3de4d660208b92610f81600a975f516020612a8f5f395f51905f529d5f91610f9f575b506125d8565b5493546040519081526001600160a01b0390941693a3955050610e78565b610fbf9150843d8611610fc5575b610fb78183612375565b8101906125c0565b8f610f7b565b503d610fad565b5060ff600c8201541615610e73565b1191508680610e6a565b60405162461bcd60e51b815260206004820152602160248201527f53696d706c65566f74696e673a20766f74696e67207374696c6c2061637469766044820152606560f81b6064820152608490fd5b50600354811115610dff565b346101e9575f3660031901126101e9576003545f19810190811161083157602090604051908152f35b346101e9575f3660031901126101e957602060ff600154166040519015158152f35b346101e95760403660031901126101e9576110a461249f565b6110ac6127b9565b6001600160a01b038116156111915760405163a9059cbb60e01b81526001600160a01b0390911660048201526024803590820152602081806044810103815f7f00000000000000000000000000000000000000000000000000000000000000006001600160a01b03165af1908115610463575f91611172575b501561112d57005b60405162461bcd60e51b815260206004820152601d60248201527f53696d706c65566f74696e673a207472616e73666572206661696c65640000006044820152606490fd5b61118b915060203d602011610fc557610fb78183612375565b81611125565b60405162461bcd60e51b815260206004820152601a60248201527f53696d706c65566f74696e673a207a65726f20616464726573730000000000006044820152606490fd5b346101e9575f3660031901126101e9576111ee6127b9565b60015460ff81161561122d5760ff19166001557f5db9ee0a495bf2e6ff9c91a7834c1ba4fdd244a5e8aa4e537bd38aeae4b073aa6020604051338152a1005b60405162461bcd60e51b815260206004820152601460248201527314185d5cd8589b194e881b9bdd081c185d5cd95960621b6044820152606490fd5b346101e9575f3660031901126101e9576020600954604051908152f35b346101e95760403660031901126101e95761129f612489565b336001600160a01b038216036112bb576102f290600435612874565b60405162461bcd60e51b815260206004820152602f60248201527f416363657373436f6e74726f6c3a2063616e206f6e6c792072656e6f756e636560448201526e103937b632b9903337b91039b2b63360891b6064820152608490fd5b346101e95760403660031901126101e957600435611334612489565b9061134e6102e8825f526002602052600160405f20015490565b805f52600260205260405f2060018060a01b0383165f5260205260ff60405f2054161561137757005b5f8181526002602090815260408083206001600160a01b0395909516808452949091528120805460ff19166001179055339291907f2f8788117e7eff1d82e926ec794901d17c78024a50270940304540a733656f0d9080a4005b346101e95760203660031901126101e95760206113fc6004355f526002602052600160405f20015490565b604051908152f35b346101e9575f3660031901126101e9576020600854604051908152f35b346101e95760203660031901126101e95760043580151580611482575b6114479061251d565b5f526005602052608060405f20600881015490600981015490600d600a82015491015491604051938452602084015260408301526060820152f35b5060035481111561143e565b346101e95760203660031901126101e9577f185daf617c465de5e0042f7aae1503b1a216ea8927cacf296e58b516e82afea860a06004356114cd6127b9565b60045490806004556040519160608352600e60608401526d1cd95cdcda5bdb91195c1bdcda5d60921b608084015260208301526040820152a1005b346101e95760803660031901126101e95760043567ffffffffffffffff81116101e95761153990369060040161245b565b906024359060443567ffffffffffffffff81116101e95761155e90369060040161245b565b90916064359261156c612721565b611574612775565b8515611c96576101f48611611c51576102588510611c0d5762093a808511611bc8576040516309ab24eb60e41b81523360048201527f00000000000000000000000000000000000000000000000000000000000000006001600160a01b031690602081602481855afa908115610463575f91611b96575b5060095411611b355760205f91606460045460405194859384926323b872dd60e01b845233600485015230602485015260448401525af1908115610463575f91611b16575b5015611ac35761164a600354956001870160035542612630565b93435f19810111610831578015611ab957915b6004546040516101c0810181811067ffffffffffffffff821117610845576040528781526020810191338352611694368b86612659565b60408301526116a4368887612659565b60608301524260808301528760a08301525f19430160c0830152600160e08301525f6101008301525f6101208301525f6101408301526101608201525f610180820152846101a0820152875f52600560205260405f20918151835560018060a01b03905116600183019060018060a01b03166bffffffffffffffffffffffff60a01b825416179055604081015180519067ffffffffffffffff8211610845578190611752600286015461233d565b601f8111611a66575b50602090601f83116001146119f9575f926119ee575b50508160011b915f199060031b1c19161760028301555b606081015180519067ffffffffffffffff8211610845576117ac600385015461233d565b601f81116119aa575b509160209a9593918a9795938c90601f8311600114611906576101a06118c294846118cf9998957f83378609ca0ceff63bb1780e0bcb970009e0224324cd8b5d2891aba8d04a03049d9e9895600d955f926118fb575b50508160011b915f199060031b1c19161760038501555b6080810151600485015560a0810151600585015560c0810151600685015561185f60e08201511515600786019060ff801983541691151516179055565b61010081015160088501556101208101516009850155610140810151600a850155610160810151600b8501556118ab6101808201511515600c86019060ff801983541691151516179055565b01519101556040519660c0885260c088019161268f565b918583038b87015261268f565b9442604084015260608301525f194301608083015260a08201528033940390a360015f55604051908152f35b015190505f8061180b565b999493929190600384015f52805f209a5f5b601f198416811061199057506118cf979695936001847f83378609ca0ceff63bb1780e0bcb970009e0224324cd8b5d2891aba8d04a03049d9e600d956101a0956118c29a98601f19811610611978575b505050811b016003850155611822565b01515f1960f88460031b161c191690555f8080611968565b828201518d556001909c019b8e9b50918f01918f01611918565b600385015f5260205f20601f840160051c8101602085106119e7575b601f830160051c820181106119dc5750506117b5565b5f81556001016119c6565b50806119c6565b015190508b80611771565b9250600285015f52805f20905f935b601f1984168510611a4b576001945083601f19811610611a33575b505050811b016002830155611788565b01515f1960f88460031b161c191690558b8080611a23565b81810151835560209485019460019093019290910190611a08565b909150600285015f5260205f20601f840160051c81019160208510611aaf575b90601f859493920160051c01905b818110611aa1575061175b565b5f8155849350600101611a94565b9091508190611a86565b506008549161165d565b60405162461bcd60e51b815260206004820152602560248201527f53696d706c65566f74696e673a206465706f736974207472616e736665722066604482015264185a5b195960da1b6064820152608490fd5b611b2f915060203d602011610fc557610fb78183612375565b87611630565b60405162461bcd60e51b815260206004820152603360248201527f53696d706c65566f74696e673a20696e73756666696369656e7420746f6b656e60448201527239903a379031b932b0ba329039b2b9b9b4b7b760691b6064820152608490fd5b90506020813d602011611bc0575b81611bb160209383612375565b810103126101e95751886115eb565b3d9150611ba4565b60405162461bcd60e51b815260206004820152601f60248201527f53696d706c65566f74696e673a206475726174696f6e20746f6f206c6f6e67006044820152606490fd5b606460405162461bcd60e51b815260206004820152602060248201527f53696d706c65566f74696e673a206475726174696f6e20746f6f2073686f72746044820152fd5b60405162461bcd60e51b815260206004820152601f60248201527f53696d706c65566f74696e673a207175657374696f6e20746f6f206c6f6e67006044820152606490fd5b60405162461bcd60e51b815260206004820152601c60248201527f53696d706c65566f74696e673a20656d707479207175657374696f6e000000006044820152606490fd5b346101e95760203660031901126101e957600435611cf7612721565b80151580611f96575b611d099061251d565b335f9081527fb1ef985877d50d34e95c2aaf1c996731c63181754cd1cb73eef00b96d479196e602052604090205460ff1615611ec157805f52600560205260405f20600781018054611d5d60ff8216612568565b60ff19169055600c81018054919060ff831615611dc9575b835f516020612a8f5f395f51905f52836008810154611dc0600a60098401549301546040519384938460809194935f9360a08301968352602083015260408201528260608201520152565b0390a260015f55005b600160ff1993909316831790559081018054600b8301805460405163a9059cbb60e01b81526001600160a01b0390931660048401526024830152909291602084806044810103815f7f00000000000000000000000000000000000000000000000000000000000000006001600160a01b03165af19384156104635760208692611e885f516020612a8f5f395f51905f52977fd15adc763ac0a264aee2528f5778f3ffef2c59bb6858e1e0591a784f6d3de4d6945f91611ea457506125d8565b5493546040519081526001600160a01b0390941693a383611d75565b611ebb9150843d8611610fc557610fb78183612375565b8a610f7b565b611f926020611f726011611ed433612906565b603784611f007f71f3d55856e4058ed06ee057d79ada615f65cdf5f9ee88181b914225088f834f6129ec565b6040519687947f416363657373436f6e74726f6c3a206163636f756e7420000000000000000000828701528051918291018587015e8401907001034b99036b4b9b9b4b733903937b6329607d1b84830152805192839101604883015e01015f838201520301601f198101835282612375565b60405162461bcd60e51b8152602060048201529182916024830190612437565b0390fd5b50600354811115611d00565b346101e95760203660031901126101e9576004355f908152600560205260409020805460018201546001600160a01b031691611fe060028201612397565b611fec60038301612397565b9160048101549260058201546006830154600784015460ff16600885015490600986015492600a87015494600b88015496600c89015460ff1698600d0154996040519d8e809e81526020015260408d016101c090526101c08d0161204f91612437565b8c810360608e015261206091612437565b9960808c015260a08b015260c08a0152151560e089015261010088015261012087015261014086015261016085015215156101808401526101a08301520390f35b346101e95760203660031901126101e95760043563ffffffff60e01b81168091036101e957602090637965db0b60e01b81149081156120e6575b506040519015158152f35b6301ffc9a760e01b149050826120db565b346101e95760203660031901126101e957600435612113612721565b80151580612331575b6121259061251d565b61212d612775565b5f8181526005602052604090206001810180549091906001600160a01b031633811480156122fa575b156122a65760078201805461216d60ff8216612568565b60ff19169055600c82018054939060ff8516156121d0575b855f516020612a8f5f395f51905f52856008810154611dc0600a60098401549301546040519384938460809194935f9360a08301968352602083015260408201528260608201520152565b60ff19909416600117909355600b8201805460405163a9059cbb60e01b81526001600160a01b03909316600484015260248301529092602084806044810103815f7f00000000000000000000000000000000000000000000000000000000000000006001600160a01b03165af193841561046357602086926122885f516020612a8f5f395f51905f52977fd15adc763ac0a264aee2528f5778f3ffef2c59bb6858e1e0591a784f6d3de4d6945f91611ea457506125d8565b5493546040519081526001600160a01b0390941693a3838080612185565b60405162461bcd60e51b815260206004820152602660248201527f53696d706c65566f74696e673a206e6f7420617574686f72697a656420746f2060448201526518d85b98d95b60d21b6064820152608490fd5b50335f9081527fe5ebfa64fca8d502a8e50c1edffd2c31ef4dad5b396e65d9f397fb028f74abc5602052604090205460ff16612156565b5060035481111561211c565b90600182811c9216801561236b575b602083101461235757565b634e487b7160e01b5f52602260045260245ffd5b91607f169161234c565b90601f8019910116810190811067ffffffffffffffff82111761084557604052565b9060405191825f8254926123aa8461233d565b808452936001811690811561241557506001146123d1575b506123cf92500383612375565b565b90505f9291925260205f20905f915b8183106123f95750509060206123cf928201015f6123c2565b60209193508060019154838589010152019101909184926123e0565b9050602092506123cf94915060ff191682840152151560051b8201015f6123c2565b805180835260209291819084018484015e5f828201840152601f01601f1916010190565b9181601f840112156101e95782359167ffffffffffffffff83116101e957602083818601950101116101e957565b602435906001600160a01b03821682036101e957565b600435906001600160a01b03821682036101e957565b90602080835192838152019201905f5b8181106124d25750505090565b82518452602093840193909201916001016124c5565b90602080835192838152019201905f5b8181106125055750505090565b825115158452602093840193909201916001016124f8565b1561252457565b606460405162461bcd60e51b815260206004820152602060248201527f53696d706c65566f74696e673a20696e76616c69642073657373696f6e2049446044820152fd5b1561256f57565b60405162461bcd60e51b815260206004820152602360248201527f53696d706c65566f74696e673a2073657373696f6e20616c726561647920656e60448201526219195960ea1b6064820152608490fd5b908160209103126101e9575180151581036101e95790565b156125df57565b60405162461bcd60e51b815260206004820152602360248201527f53696d706c65566f74696e673a206465706f73697420726566756e64206661696044820152621b195960ea1b6064820152608490fd5b9190820180921161083157565b67ffffffffffffffff811161084557601f01601f191660200190565b9291926126658261263d565b916126736040519384612375565b8294818452818301116101e9578281602093845f960137010152565b908060209392818452848401375f828201840152601f01601f1916010190565b67ffffffffffffffff81116108455760051b60200190565b906126d1826126af565b6126de6040519182612375565b82815280926126ef601f19916126af565b0190602036910137565b805182101561270d5760209160051b010190565b634e487b7160e01b5f52603260045260245ffd5b60025f54146127305760025f55565b60405162461bcd60e51b815260206004820152601f60248201527f5265656e7472616e637947756172643a207265656e7472616e742063616c6c006044820152606490fd5b60ff6001541661278157565b60405162461bcd60e51b815260206004820152601060248201526f14185d5cd8589b194e881c185d5cd95960821b6044820152606490fd5b335f9081527fe5ebfa64fca8d502a8e50c1edffd2c31ef4dad5b396e65d9f397fb028f74abc5602052604090205460ff16156127f157565b611f926020611f72601161280433612906565b603784611f007fa49807205ce4d355092ef5a8a18f56e8913cf4a201fbe287825b095693c217756129ec565b5f81815260026020908152604080832033845290915290205460ff16156128545750565b6020611f726011611f9293603784611f0061286e33612906565b936129ec565b805f52600260205260405f2060018060a01b0383165f5260205260ff60405f20541661289e575050565b5f8181526002602090815260408083206001600160a01b0395909516808452949091528120805460ff19169055339291907ff6391f5c32d9c69d2a47ea670b442974b53935d1edc7fd64eb21e047a839171b9080a4565b90815181101561270d570160200190565b612910602a61263d565b9061291e6040519283612375565b602a825261292c602a61263d565b6020830190601f190136823782511561270d576030905381516001101561270d576078602183015360295b600181116129ab57506129675790565b606460405162461bcd60e51b815260206004820152602060248201527f537472696e67733a20686578206c656e67746820696e73756666696369656e746044820152fd5b90600f8116601081101561270d576f181899199a1a9b1b9c1cb0b131b232b360811b901a6129d983856128f5565b5360041c908015610831575f1901612957565b6129f6604261263d565b90612a046040519283612375565b60428252612a12604261263d565b6020830190601f190136823782511561270d576030905381516001101561270d576078602183015360415b60018111612a4d57506129675790565b90600f8116601081101561270d576f181899199a1a9b1b9c1cb0b131b232b360811b901a612a7b83856128f5565b5360041c908015610831575f1901612a3d56fe561df87fee52f77301ec5977e9bbb9e232f72b06833a444980d13318dbe68b6ca264697066735822122066a2e0b7ac8df916cf5cb44c8fd0a2d230af887fd63d9e9a8ea92e728e46bd7c64736f6c634300081e00332f8788117e7eff1d82e926ec794901d17c78024a50270940304540a733656f0dac33ff75c19e70fe83507db0d683fd3465c996598dc972688b7ace676c89077be5ebfa64fca8d502a8e50c1edffd2c31ef4dad5b396e65d9f397fb028f74abc5",
    "sourcePath": "/home/levai/somnia-governance-engine/contracts/src/SimpleVoting.sol",
    "compiler": {
        "name": "solc",
        "version": "0.8.30+commit.73712a01"
    },
    "functionHashes": {
        "ADMIN_ROLE()": "75b238fc",
        "DEFAULT_ADMIN_ROLE()": "a217fddf",
        "MAX_VOTING_DURATION()": "eefe85e4",
        "MIN_VOTING_DURATION()": "eaf1061c",
        "MODERATOR_ROLE()": "797669c9",
        "batchGetSessions(uint256[])": "78f5238a",
        "canCreateSession(address)": "b130f547",
        "cancelVoteSession(uint256)": "0172ac9d",
        "createVoteSession(string,uint256,string,uint256)": "119f9b25",
        "defaultMinimumQuorum()": "20396780",
        "emergencyStopSession(uint256)": "09dd0128",
        "endVoteSession(uint256)": "7187bece",
        "getRoleAdmin(bytes32)": "248a9ca3",
        "getSessionCount()": "6e6734bf",
        "getSessionResults(uint256)": "aedc7033",
        "getVoteSession(uint256)": "778021e4",
        "getVoteSessionResults(uint256)": "1b5232b0",
        "governanceToken()": "f96dae0a",
        "grantRole(bytes32,address)": "2f2ff15d",
        "hasRole(bytes32,address)": "91d14854",
        "hasVotedInSession(uint256,address)": "d2bd5bb7",
        "pause()": "8456cb59",
        "paused()": "5c975abb",
        "renounceRole(bytes32,address)": "36568abe",
        "revokeRole(bytes32,address)": "d547741f",
        "sessionCreationThreshold()": "3ed95988",
        "sessionDeposit()": "96a5b585",
        "sessionVotes(uint256,address)": "c349c51b",
        "supportsInterface(bytes4)": "01ffc9a7",
        "unpause()": "3f4ba83a",
        "updateDefaultMinimumQuorum(uint256)": "7d1123ea",
        "updateSessionCreationThreshold(uint256)": "e915a065",
        "updateSessionDeposit(uint256)": "19f41d5f",
        "voteInSession(uint256,bool)": "7fce5d77",
        "voteSessions(uint256)": "06caebb6",
        "withdrawUnclaimedDeposits(address,uint256)": "44aeeb0c"
    },
    "gasEstimates": {
        "creation": {
            "codeDepositCost": "2196000",
            "executionCost": "infinite",
            "totalCost": "infinite"
        },
        "external": {
            "ADMIN_ROLE()": "519",
            "DEFAULT_ADMIN_ROLE()": "716",
            "MAX_VOTING_DURATION()": "893",
            "MIN_VOTING_DURATION()": "871",
            "MODERATOR_ROLE()": "585",
            "batchGetSessions(uint256[])": "infinite",
            "canCreateSession(address)": "infinite",
            "cancelVoteSession(uint256)": "infinite",
            "createVoteSession(string,uint256,string,uint256)": "infinite",
            "defaultMinimumQuorum()": "2402",
            "emergencyStopSession(uint256)": "infinite",
            "endVoteSession(uint256)": "infinite",
            "getRoleAdmin(bytes32)": "2510",
            "getSessionCount()": "2616",
            "getSessionResults(uint256)": "15876",
            "getVoteSession(uint256)": "infinite",
            "getVoteSessionResults(uint256)": "11030",
            "governanceToken()": "infinite",
            "grantRole(bytes32,address)": "infinite",
            "hasRole(bytes32,address)": "3005",
            "hasVotedInSession(uint256,address)": "3137",
            "pause()": "infinite",
            "paused()": "2568",
            "renounceRole(bytes32,address)": "29030",
            "revokeRole(bytes32,address)": "infinite",
            "sessionCreationThreshold()": "2490",
            "sessionDeposit()": "2798",
            "sessionVotes(uint256,address)": "7414",
            "supportsInterface(bytes4)": "292",
            "unpause()": "infinite",
            "updateDefaultMinimumQuorum(uint256)": "infinite",
            "updateSessionCreationThreshold(uint256)": "infinite",
            "updateSessionDeposit(uint256)": "infinite",
            "voteInSession(uint256,bool)": "infinite",
            "voteSessions(uint256)": "infinite",
            "withdrawUnclaimedDeposits(address,uint256)": "infinite"
        }
    }
}